{
  "_format": "hh-sol-artifact-1",
  "contractName": "UniversityToken",
  "sourceName": "contracts/UniversityToken.sol",
  "abi": [
    {
      "inputs": [],
      "stateMutability": "nonpayable",
      "type": "constructor"
    },
    {
      "anonymous": false,
      "inputs": [
        {
          "indexed": true,
          "internalType": "address",
          "name": "owner",
          "type": "address"
        },
        {
          "indexed": true,
          "internalType": "address",
          "name": "spender",
          "type": "address"
        },
        {
          "indexed": false,
          "internalType": "uint256",
          "name": "value",
          "type": "uint256"
        }
      ],
      "name": "Approval",
      "type": "event"
    },
    {
      "anonymous": false,
      "inputs": [
        {
          "indexed": true,
          "internalType": "address",
          "name": "from",
          "type": "address"
        },
        {
          "indexed": true,
          "internalType": "address",
          "name": "to",
          "type": "address"
        },
        {
          "indexed": false,
          "internalType": "uint256",
          "name": "value",
          "type": "uint256"
        }
      ],
      "name": "Transfer",
      "type": "event"
    },
    {
      "inputs": [
        {
          "internalType": "address",
          "name": "owner",
          "type": "address"
        },
        {
          "internalType": "address",
          "name": "spender",
          "type": "address"
        }
      ],
      "name": "allowance",
      "outputs": [
        {
          "internalType": "uint256",
          "name": "",
          "type": "uint256"
        }
      ],
      "stateMutability": "view",
      "type": "function"
    },
    {
      "inputs": [
        {
          "internalType": "address",
          "name": "spender",
          "type": "address"
        },
        {
          "internalType": "uint256",
          "name": "amount",
          "type": "uint256"
        }
      ],
      "name": "approve",
      "outputs": [
        {
          "internalType": "bool",
          "name": "",
          "type": "bool"
        }
      ],
      "stateMutability": "nonpayable",
      "type": "function"
    },
    {
      "inputs": [
        {
          "internalType": "address",
          "name": "account",
          "type": "address"
        }
      ],
      "name": "balanceOf",
      "outputs": [
        {
          "internalType": "uint256",
          "name": "",
          "type": "uint256"
        }
      ],
      "stateMutability": "view",
      "type": "function"
    },
    {
      "inputs": [],
      "name": "decimals",
      "outputs": [
        {
          "internalType": "uint8",
          "name": "",
          "type": "uint8"
        }
      ],
      "stateMutability": "view",
      "type": "function"
    },
    {
      "inputs": [
        {
          "internalType": "address",
          "name": "spender",
          "type": "address"
        },
        {
          "internalType": "uint256",
          "name": "subtractedValue",
          "type": "uint256"
        }
      ],
      "name": "decreaseAllowance",
      "outputs": [
        {
          "internalType": "bool",
          "name": "",
          "type": "bool"
        }
      ],
      "stateMutability": "nonpayable",
      "type": "function"
    },
    {
      "inputs": [],
      "name": "getLastTransactionInfo",
      "outputs": [
        {
          "internalType": "address",
          "name": "sender",
          "type": "address"
        },
        {
          "internalType": "address",
          "name": "receiver",
          "type": "address"
        },
        {
          "internalType": "uint256",
          "name": "amount",
          "type": "uint256"
        },
        {
          "internalType": "uint256",
          "name": "timestamp",
          "type": "uint256"
        }
      ],
      "stateMutability": "view",
      "type": "function"
    },
    {
      "inputs": [],
      "name": "getLastTransactionReceiver",
      "outputs": [
        {
          "internalType": "address",
          "name": "",
          "type": "address"
        }
      ],
      "stateMutability": "view",
      "type": "function"
    },
    {
      "inputs": [],
      "name": "getLastTransactionSender",
      "outputs": [
        {
          "internalType": "address",
          "name": "",
          "type": "address"
        }
      ],
      "stateMutability": "view",
      "type": "function"
    },
    {
      "inputs": [],
      "name": "getLatestTransactionDateTime",
      "outputs": [
        {
          "internalType": "string",
          "name": "",
          "type": "string"
        }
      ],
      "stateMutability": "view",
      "type": "function"
    },
    {
      "inputs": [
        {
          "internalType": "address",
          "name": "spender",
          "type": "address"
        },
        {
          "internalType": "uint256",
          "name": "addedValue",
          "type": "uint256"
        }
      ],
      "name": "increaseAllowance",
      "outputs": [
        {
          "internalType": "bool",
          "name": "",
          "type": "bool"
        }
      ],
      "stateMutability": "nonpayable",
      "type": "function"
    },
    {
      "inputs": [],
      "name": "name",
      "outputs": [
        {
          "internalType": "string",
          "name": "",
          "type": "string"
        }
      ],
      "stateMutability": "view",
      "type": "function"
    },
    {
      "inputs": [],
      "name": "symbol",
      "outputs": [
        {
          "internalType": "string",
          "name": "",
          "type": "string"
        }
      ],
      "stateMutability": "view",
      "type": "function"
    },
    {
      "inputs": [],
      "name": "totalSupply",
      "outputs": [
        {
          "internalType": "uint256",
          "name": "",
          "type": "uint256"
        }
      ],
      "stateMutability": "view",
      "type": "function"
    },
    {
      "inputs": [
        {
          "internalType": "address",
          "name": "recipient",
          "type": "address"
        },
        {
          "internalType": "uint256",
          "name": "amount",
          "type": "uint256"
        }
      ],
      "name": "transfer",
      "outputs": [
        {
          "internalType": "bool",
          "name": "",
          "type": "bool"
        }
      ],
      "stateMutability": "nonpayable",
      "type": "function"
    },
    {
      "inputs": [
        {
          "internalType": "address",
          "name": "sender",
          "type": "address"
        },
        {
          "internalType": "address",
          "name": "recipient",
          "type": "address"
        },
        {
          "internalType": "uint256",
          "name": "amount",
          "type": "uint256"
        }
      ],
      "name": "transferFrom",
      "outputs": [
        {
          "internalType": "bool",
          "name": "",
          "type": "bool"
        }
      ],
      "stateMutability": "nonpayable",
      "type": "function"
    }
  ],
  "bytecode": "0x60806040523480156200001157600080fd5b506040518060400160405280600f81526020017f556e6976657273697479546f6b656e00000000000000000000000000000000008152506040518060400160405280600381526020017f554754000000000000000000000000000000000000000000000000000000000081525081600390805190602001906200009692919062000282565b508060049080519060200190620000af92919062000282565b505050620000f033620000c7620000f660201b60201c565b600a620000d591906200048d565b6107d0620000e49190620005ca565b620000ff60201b60201c565b620006e3565b60006012905090565b600073ffffffffffffffffffffffffffffffffffffffff168273ffffffffffffffffffffffffffffffffffffffff16141562000172576040517f08c379a0000000000000000000000000000000000000000000000000000000008152600401620001699062000385565b60405180910390fd5b62000186600083836200027860201b60201c565b80600260008282546200019a9190620003d5565b92505081905550806000808473ffffffffffffffffffffffffffffffffffffffff1673ffffffffffffffffffffffffffffffffffffffff1681526020019081526020016000206000828254620001f19190620003d5565b925050819055508173ffffffffffffffffffffffffffffffffffffffff16600073ffffffffffffffffffffffffffffffffffffffff167fddf252ad1be2c89b69c2b068fc378daa952ba7f163c4a11628f55a4df523b3ef83604051620002589190620003a7565b60405180910390a362000274600083836200027d60201b60201c565b5050565b505050565b505050565b828054620002909062000642565b90600052602060002090601f016020900481019282620002b4576000855562000300565b82601f10620002cf57805160ff191683800117855562000300565b8280016001018555821562000300579182015b82811115620002ff578251825591602001919060010190620002e2565b5b5090506200030f919062000313565b5090565b5b808211156200032e57600081600090555060010162000314565b5090565b600062000341601f83620003c4565b91507f45524332303a206d696e7420746f20746865207a65726f2061646472657373006000830152602082019050919050565b6200037f816200062b565b82525050565b60006020820190508181036000830152620003a08162000332565b9050919050565b6000602082019050620003be600083018462000374565b92915050565b600082825260208201905092915050565b6000620003e2826200062b565b9150620003ef836200062b565b9250827fffffffffffffffffffffffffffffffffffffffffffffffffffffffffffffffff0382111562000427576200042662000678565b5b828201905092915050565b6000808291508390505b600185111562000484578086048111156200045c576200045b62000678565b5b60018516156200046c5780820291505b80810290506200047c85620006d6565b94506200043c565b94509492505050565b60006200049a826200062b565b9150620004a78362000635565b9250620004d67fffffffffffffffffffffffffffffffffffffffffffffffffffffffffffffffff8484620004de565b905092915050565b600082620004f05760019050620005c3565b81620005005760009050620005c3565b816001811462000519576002811462000524576200055a565b6001915050620005c3565b60ff84111562000539576200053862000678565b5b8360020a91508482111562000553576200055262000678565b5b50620005c3565b5060208310610133831016604e8410600b8410161715620005945782820a9050838111156200058e576200058d62000678565b5b620005c3565b620005a3848484600162000432565b92509050818404811115620005bd57620005bc62000678565b5b81810290505b9392505050565b6000620005d7826200062b565b9150620005e4836200062b565b9250817fffffffffffffffffffffffffffffffffffffffffffffffffffffffffffffffff048311821515161562000620576200061f62000678565b5b828202905092915050565b6000819050919050565b600060ff82169050919050565b600060028204905060018216806200065b57607f821691505b60208210811415620006725762000671620006a7565b5b50919050565b7f4e487b7100000000000000000000000000000000000000000000000000000000600052601160045260246000fd5b7f4e487b7100000000000000000000000000000000000000000000000000000000600052602260045260246000fd5b60008160011c9050919050565b61197b80620006f36000396000f3fe608060405234801561001057600080fd5b50600436106100f55760003560e01c8063313ce56711610097578063a457c2d711610066578063a457c2d71461028f578063a9059cbb146102bf578063b2dd3208146102ef578063dd62ed3e1461030d576100f5565b8063313ce567146101f3578063395093511461021157806370a082311461024157806395d89b4114610271576100f5565b806318160ddd116100d357806318160ddd1461016957806320a3f4b51461018757806323b872dd146101a55780632a804b82146101d5576100f5565b806306fdde03146100fa578063095ea7b3146101185780630dfdeecf14610148575b600080fd5b61010261033d565b60405161010f919061152b565b60405180910390f35b610132600480360381019061012d919061107c565b6103cf565b60405161013f9190611510565b60405180910390f35b6101506103ed565b60405161016094939291906114cb565b60405180910390f35b61017161044d565b60405161017e919061162d565b60405180910390f35b61018f610457565b60405161019c91906114b0565b60405180910390f35b6101bf60048036038101906101ba919061102d565b610481565b6040516101cc9190611510565b60405180910390f35b6101dd610579565b6040516101ea919061152b565b60405180910390f35b6101fb6105aa565b6040516102089190611648565b60405180910390f35b61022b6004803603810190610226919061107c565b6105b3565b6040516102389190611510565b60405180910390f35b61025b60048036038101906102569190610fc8565b61065f565b604051610268919061162d565b60405180910390f35b6102796106a7565b604051610286919061152b565b60405180910390f35b6102a960048036038101906102a4919061107c565b610739565b6040516102b69190611510565b60405180910390f35b6102d960048036038101906102d4919061107c565b610824565b6040516102e69190611510565b60405180910390f35b6102f7610842565b60405161030491906114b0565b60405180910390f35b61032760048036038101906103229190610ff1565b61086c565b604051610334919061162d565b60405180910390f35b60606003805461034c906117cd565b80601f0160208091040260200160405190810160405280929190818152602001828054610378906117cd565b80156103c55780601f1061039a576101008083540402835291602001916103c5565b820191906000526020600020905b8154815290600101906020018083116103a857829003601f168201915b5050505050905090565b60006103e36103dc6108f3565b84846108fb565b6001905092915050565b600080600080600560009054906101000a900473ffffffffffffffffffffffffffffffffffffffff16600660009054906101000a900473ffffffffffffffffffffffffffffffffffffffff16600754600854935093509350935090919293565b6000600254905090565b6000600560009054906101000a900473ffffffffffffffffffffffffffffffffffffffff16905090565b600061048e848484610ac6565b6000600160008673ffffffffffffffffffffffffffffffffffffffff1673ffffffffffffffffffffffffffffffffffffffff16815260200190815260200160002060006104d96108f3565b73ffffffffffffffffffffffffffffffffffffffff1673ffffffffffffffffffffffffffffffffffffffff16815260200190815260200160002054905082811015610559576040517f08c379a0000000000000000000000000000000000000000000000000000000008152600401610550906115ad565b60405180910390fd5b61056d856105656108f3565b8584036108fb565b60019150509392505050565b6060610586600854610b66565b604051602001610596919061148e565b604051602081830303815290604052905090565b60006012905090565b60006106556105c06108f3565b8484600160006105ce6108f3565b73ffffffffffffffffffffffffffffffffffffffff1673ffffffffffffffffffffffffffffffffffffffff16815260200190815260200160002060008873ffffffffffffffffffffffffffffffffffffffff1673ffffffffffffffffffffffffffffffffffffffff16815260200190815260200160002054610650919061168a565b6108fb565b6001905092915050565b60008060008373ffffffffffffffffffffffffffffffffffffffff1673ffffffffffffffffffffffffffffffffffffffff168152602001908152602001600020549050919050565b6060600480546106b6906117cd565b80601f01602080910402602001604051908101604052809291908181526020018280546106e2906117cd565b801561072f5780601f106107045761010080835404028352916020019161072f565b820191906000526020600020905b81548152906001019060200180831161071257829003601f168201915b5050505050905090565b600080600160006107486108f3565b73ffffffffffffffffffffffffffffffffffffffff1673ffffffffffffffffffffffffffffffffffffffff16815260200190815260200160002060008573ffffffffffffffffffffffffffffffffffffffff1673ffffffffffffffffffffffffffffffffffffffff16815260200190815260200160002054905082811015610805576040517f08c379a00000000000000000000000000000000000000000000000000000000081526004016107fc9061160d565b60405180910390fd5b6108196108106108f3565b858584036108fb565b600191505092915050565b60006108386108316108f3565b8484610ac6565b6001905092915050565b6000600660009054906101000a900473ffffffffffffffffffffffffffffffffffffffff16905090565b6000600160008473ffffffffffffffffffffffffffffffffffffffff1673ffffffffffffffffffffffffffffffffffffffff16815260200190815260200160002060008373ffffffffffffffffffffffffffffffffffffffff1673ffffffffffffffffffffffffffffffffffffffff16815260200190815260200160002054905092915050565b600033905090565b600073ffffffffffffffffffffffffffffffffffffffff168373ffffffffffffffffffffffffffffffffffffffff16141561096b576040517f08c379a0000000000000000000000000000000000000000000000000000000008152600401610962906115ed565b60405180910390fd5b600073ffffffffffffffffffffffffffffffffffffffff168273ffffffffffffffffffffffffffffffffffffffff1614156109db576040517f08c379a00000000000000000000000000000000000000000000000000000000081526004016109d29061156d565b60405180910390fd5b80600160008573ffffffffffffffffffffffffffffffffffffffff1673ffffffffffffffffffffffffffffffffffffffff16815260200190815260200160002060008473ffffffffffffffffffffffffffffffffffffffff1673ffffffffffffffffffffffffffffffffffffffff168152602001908152602001600020819055508173ffffffffffffffffffffffffffffffffffffffff168373ffffffffffffffffffffffffffffffffffffffff167f8c5be1e5ebec7d5bd14f71427d1e84f3dd0314c0f7b2291e5b200ac8c7c3b92583604051610ab9919061162d565b60405180910390a3505050565b610ad1838383610d13565b82600560006101000a81548173ffffffffffffffffffffffffffffffffffffffff021916908373ffffffffffffffffffffffffffffffffffffffff16021790555081600660006101000a81548173ffffffffffffffffffffffffffffffffffffffff021916908373ffffffffffffffffffffffffffffffffffffffff1602179055508060078190555042600881905550505050565b60606000821415610bae576040518060400160405280600181526020017f30000000000000000000000000000000000000000000000000000000000000008152509050610d0e565b600082905060005b60008214610be0578080610bc9906117ff565b915050600a82610bd991906116e0565b9150610bb6565b60008167ffffffffffffffff811115610c22577f4e487b7100000000000000000000000000000000000000000000000000000000600052604160045260246000fd5b6040519080825280601f01601f191660200182016040528015610c545781602001600182028036833780820191505090505b5090505b60008514610d0757600182610c6d9190611711565b9150600a85610c7c9190611848565b6030610c88919061168a565b60f81b818381518110610cc4577f4e487b7100000000000000000000000000000000000000000000000000000000600052603260045260246000fd5b60200101907effffffffffffffffffffffffffffffffffffffffffffffffffffffffffffff1916908160001a905350600a85610d0091906116e0565b9450610c58565b8093505050505b919050565b600073ffffffffffffffffffffffffffffffffffffffff168373ffffffffffffffffffffffffffffffffffffffff161415610d83576040517f08c379a0000000000000000000000000000000000000000000000000000000008152600401610d7a906115cd565b60405180910390fd5b600073ffffffffffffffffffffffffffffffffffffffff168273ffffffffffffffffffffffffffffffffffffffff161415610df3576040517f08c379a0000000000000000000000000000000000000000000000000000000008152600401610dea9061154d565b60405180910390fd5b610dfe838383610f94565b60008060008573ffffffffffffffffffffffffffffffffffffffff1673ffffffffffffffffffffffffffffffffffffffff16815260200190815260200160002054905081811015610e84576040517f08c379a0000000000000000000000000000000000000000000000000000000008152600401610e7b9061158d565b60405180910390fd5b8181036000808673ffffffffffffffffffffffffffffffffffffffff1673ffffffffffffffffffffffffffffffffffffffff16815260200190815260200160002081905550816000808573ffffffffffffffffffffffffffffffffffffffff1673ffffffffffffffffffffffffffffffffffffffff1681526020019081526020016000206000828254610f17919061168a565b925050819055508273ffffffffffffffffffffffffffffffffffffffff168473ffffffffffffffffffffffffffffffffffffffff167fddf252ad1be2c89b69c2b068fc378daa952ba7f163c4a11628f55a4df523b3ef84604051610f7b919061162d565b60405180910390a3610f8e848484610f99565b50505050565b505050565b505050565b600081359050610fad81611917565b92915050565b600081359050610fc28161192e565b92915050565b600060208284031215610fda57600080fd5b6000610fe884828501610f9e565b91505092915050565b6000806040838503121561100457600080fd5b600061101285828601610f9e565b925050602061102385828601610f9e565b9150509250929050565b60008060006060848603121561104257600080fd5b600061105086828701610f9e565b935050602061106186828701610f9e565b925050604061107286828701610fb3565b9150509250925092565b6000806040838503121561108f57600080fd5b600061109d85828601610f9e565b92505060206110ae85828601610fb3565b9150509250929050565b6110c181611745565b82525050565b6110d081611757565b82525050565b60006110e182611663565b6110eb818561166e565b93506110fb81856020860161179a565b61110481611906565b840191505092915050565b600061111a82611663565b611124818561167f565b935061113481856020860161179a565b80840191505092915050565b600061114d60238361166e565b91507f45524332303a207472616e7366657220746f20746865207a65726f206164647260008301527f65737300000000000000000000000000000000000000000000000000000000006020830152604082019050919050565b60006111b360228361166e565b91507f45524332303a20617070726f766520746f20746865207a65726f20616464726560008301527f73730000000000000000000000000000000000000000000000000000000000006020830152604082019050919050565b600061121960268361166e565b91507f45524332303a207472616e7366657220616d6f756e742065786365656473206260008301527f616c616e636500000000000000000000000000000000000000000000000000006020830152604082019050919050565b600061127f60288361166e565b91507f45524332303a207472616e7366657220616d6f756e742065786365656473206160008301527f6c6c6f77616e63650000000000000000000000000000000000000000000000006020830152604082019050919050565b60006112e560258361166e565b91507f45524332303a207472616e736665722066726f6d20746865207a65726f20616460008301527f64726573730000000000000000000000000000000000000000000000000000006020830152604082019050919050565b600061134b60248361166e565b91507f45524332303a20617070726f76652066726f6d20746865207a65726f2061646460008301527f72657373000000000000000000000000000000000000000000000000000000006020830152604082019050919050565b60006113b160258361167f565b91507f4c6174657374205472616e73616374696f6e2054696d657374616d702028556e60008301527f6978293a200000000000000000000000000000000000000000000000000000006020830152602582019050919050565b600061141760258361166e565b91507f45524332303a2064656372656173656420616c6c6f77616e63652062656c6f7760008301527f207a65726f0000000000000000000000000000000000000000000000000000006020830152604082019050919050565b61147981611783565b82525050565b6114888161178d565b82525050565b6000611499826113a4565b91506114a5828461110f565b915081905092915050565b60006020820190506114c560008301846110b8565b92915050565b60006080820190506114e060008301876110b8565b6114ed60208301866110b8565b6114fa6040830185611470565b6115076060830184611470565b95945050505050565b600060208201905061152560008301846110c7565b92915050565b6000602082019050818103600083015261154581846110d6565b905092915050565b6000602082019050818103600083015261156681611140565b9050919050565b60006020820190508181036000830152611586816111a6565b9050919050565b600060208201905081810360008301526115a68161120c565b9050919050565b600060208201905081810360008301526115c681611272565b9050919050565b600060208201905081810360008301526115e6816112d8565b9050919050565b600060208201905081810360008301526116068161133e565b9050919050565b600060208201905081810360008301526116268161140a565b9050919050565b60006020820190506116426000830184611470565b92915050565b600060208201905061165d600083018461147f565b92915050565b600081519050919050565b600082825260208201905092915050565b600081905092915050565b600061169582611783565b91506116a083611783565b9250827fffffffffffffffffffffffffffffffffffffffffffffffffffffffffffffffff038211156116d5576116d4611879565b5b828201905092915050565b60006116eb82611783565b91506116f683611783565b925082611706576117056118a8565b5b828204905092915050565b600061171c82611783565b915061172783611783565b92508282101561173a57611739611879565b5b828203905092915050565b600061175082611763565b9050919050565b60008115159050919050565b600073ffffffffffffffffffffffffffffffffffffffff82169050919050565b6000819050919050565b600060ff82169050919050565b60005b838110156117b857808201518184015260208101905061179d565b838111156117c7576000848401525b50505050565b600060028204905060018216806117e557607f821691505b602082108114156117f9576117f86118d7565b5b50919050565b600061180a82611783565b91507fffffffffffffffffffffffffffffffffffffffffffffffffffffffffffffffff82141561183d5761183c611879565b5b600182019050919050565b600061185382611783565b915061185e83611783565b92508261186e5761186d6118a8565b5b828206905092915050565b7f4e487b7100000000000000000000000000000000000000000000000000000000600052601160045260246000fd5b7f4e487b7100000000000000000000000000000000000000000000000000000000600052601260045260246000fd5b7f4e487b7100000000000000000000000000000000000000000000000000000000600052602260045260246000fd5b6000601f19601f8301169050919050565b61192081611745565b811461192b57600080fd5b50565b61193781611783565b811461194257600080fd5b5056fea2646970667358221220a75d239518e84149575e44375ae93ba3e787afc92dd20f5286ccee9e2c79682364736f6c63430008000033",
  "linkReferences": {},
  "deployedLinkReferences": {}
}